:1000000045C0000080C000009AC00000B4C00000DD
:10001000CEC00000E8C0000002C100001CC100000A
:1000200036C1000048C0000046C0000044C00000C7
:1000300042C0000040C000003EC000003CC00000C4
:100040003AC0000038C0000036C0000034C00000D4
:1000500032C0000030C000002EC000002CC00000E4
:100060002AC0000028C0000026C0000024C00000F4
:1000700022C0000020C000001EC000001CC0000004
:100080001AC0000018C0000016C0000011241FBED6
:10009000CFEFD0E1DEBFCDBF11E0A0E0B1E0EAECF0
:1000A000F2E000E00BBF02C007900D92A230B10752
:1000B000D9F702D008C1A4CF88E082B910928B0092
:1000C00089E180938A0010928C001092890010922E
:1000D00088008FEF80936A008ABF89BF80EF88BF56
:1000E0007894809100018823E1F32FEF8FE392E071
:1000F000215080409040E1F700C0000010928B003A
:1001000010920001EECF1F920F920FB60F921124A2
:100110008F939F93F8948EE592E190938100809362
:10012000800080E480938B0081E0809300017894CC
:100130009F918F910F900FBE0F901F9018951F9257
:100140000F920FB60F9211248F939F93F8948DE521
:1001500090E1909381008093800080E480938B00F5
:1001600081E08093000178949F918F910F900FBE52
:100170000F901F9018951F920F920FB60F92112497
:100180008F939F93F8948BE89EE0909381008093E7
:10019000800080E480938B0081E08093000178945C
:1001A0009F918F910F900FBE0F901F9018951F92E7
:1001B0000F920FB60F9211248F939F93F89484ECB3
:1001C0009DE0909381008093800080E480938B0079
:1001D00081E08093000178949F918F910F900FBEE2
:1001E0000F901F9018951F920F920FB60F92112427
:1001F0008F939F93F89485E89BE19093810080937F
:10020000800080E480938B0081E0809300017894EB
:100210009F918F910F900FBE0F901F9018951F9276
:100220000F920FB60F9211248F939F93F8948FE73C
:1002300098E1909381008093800080E480938B000C
:1002400081E08093000178949F918F910F900FBE71
:100250000F901F9018951F920F920FB60F921124B6
:100260008F939F93F89489ED95E19093810080930B
:10027000800080E480938B0081E08093000178947B
:100280009F918F910F900FBE0F901F9018951F9206
:100290000F920FB60F9211248F939F93F89481EAD7
:1002A00094E1909381008093800080E480938B00A0
:1002B00081E08093000178949F918F910F900FBE01
:0A02C0000F901F901895F894FFCFDF
:0202CA00010031
:00000001FF
