S00C00004750494F2E73726563E9
S113000045C000004BC0000049C0000047C00000CC
S113001045C0000043C0000041C000003FC00000D4
S11300203DC000003BC0000039C0000037C00000E4
S113003035C0000033C0000031C000002FC00000F4
S11300402DC000002BC0000029C0000027C0000004
S113005025C0000023C0000021C000001FC0000014
S11300601DC000001BC0000019C0000017C0000024
S113007015C0000013C0000011C000000FC0000034
S11300800DC000000BC0000009C0000011241FBEF9
S1130090CFEFD0E1DEBFCDBF87D01AC1B1CFE5E647
S11300A0F0E090819160908390819D7F9083908116
S11300B09460908390E19A95F1F700C08BBB80E146
S11300C08A95F1F700C080818B7F80830895E5E6EF
S11300D0F0E090819E7F908390819D7F90839081BA
S11300E09460908390E19A95F1F700C08BBB80E116
S11300F08A95F1F700C080818B7F80830895CFDFDC
S113010089EF90E00197F1F700C000000895CF93C4
S1130110DF93EC0102C0F3DF219688818111FBCFCC
S1130120DF91CF91089590E4899F600D1124862F6B
S11301308068CDDF83EC99E00197F1F700C00000FF
S1130140089581E0C4DF83EC99E00197F1F700C0E2
S11301500000089588E3BBDF83EF91E00197F1F796
S113016000C0000088E3B3DF83EF91E00197F1F76B
S113017000C0000088E3ABDF83EF91E00197F1F763
S113018000C000008CE0A3DF83EF91E00197F1F75A
S113019000C0000086E09BDF83EF91E00197F1F758
S11301A000C00000CECF0895CF93DF93CDB7DEB764
S11301B060970FB6F894DEBF0FBECDBF8FEF8ABB3A
S11301C080936400C7DF2FEF8FE392E021508040DB
S11301D09040E1F700C00000B4DFEE24E394F12C7A
S11301E04BC0E1E0F0E0EC0FFD1FE80FF91F20E247
S11301F02083019602C080E090E0803191058CF369
S113020080E38E0D8A8388E58B8380E3800F8C8363
S11302108DE38D83E09EC001E19E900DF09E900DD4
S113022011248A30910544F06AE070E02AD0605DC0
S11302306E83805D8F8305C00E9D802D1124805DAB
S11302408F8360E080E06FDFCE01019660DF2FEFE7
S11302508FE39BE0215080409040E1F700C0000014
S11302600F5F1F4F02C001E010E00A3011050CF4CB
S1130270C2CF2FEFE21AF20A8AE0E816F1049CF3E7
S1130280ACCF97FB072E16F4009406D077FD08D068
S11302900BD007FC05D03EF4909581959F4F0895AF
S11302A0709561957F4F0895AA1BBB1B51E107C050
S11302B0AA1FBB1FA617B70710F0A61BB70B881FF2
S11302C0991F5A95A9F780959095BC01CD01089581
S10702D0F894FFCFCC
S9030000FC
